{
  "contractName": "MyContract",
  "abi": [
    {
      "constant": true,
      "inputs": [
        {
          "internalType": "uint256",
          "name": "",
          "type": "uint256"
        }
      ],
      "name": "events",
      "outputs": [
        {
          "internalType": "string",
          "name": "activity",
          "type": "string"
        },
        {
          "internalType": "uint256",
          "name": "date",
          "type": "uint256"
        },
        {
          "internalType": "string",
          "name": "className",
          "type": "string"
        }
      ],
      "payable": false,
      "stateMutability": "view",
      "type": "function"
    },
    {
      "constant": false,
      "inputs": [
        {
          "internalType": "string",
          "name": "_activity",
          "type": "string"
        },
        {
          "internalType": "uint256",
          "name": "_date",
          "type": "uint256"
        },
        {
          "internalType": "string",
          "name": "_className",
          "type": "string"
        }
      ],
      "name": "addEvent",
      "outputs": [],
      "payable": false,
      "stateMutability": "nonpayable",
      "type": "function"
    },
    {
      "constant": false,
      "inputs": [
        {
          "internalType": "uint256",
          "name": "_index",
          "type": "uint256"
        },
        {
          "internalType": "string",
          "name": "_activity",
          "type": "string"
        },
        {
          "internalType": "uint256",
          "name": "_date",
          "type": "uint256"
        },
        {
          "internalType": "string",
          "name": "_className",
          "type": "string"
        }
      ],
      "name": "editEvent",
      "outputs": [],
      "payable": false,
      "stateMutability": "nonpayable",
      "type": "function"
    },
    {
      "constant": false,
      "inputs": [
        {
          "internalType": "uint256",
          "name": "_index",
          "type": "uint256"
        }
      ],
      "name": "deleteEvent",
      "outputs": [],
      "payable": false,
      "stateMutability": "nonpayable",
      "type": "function"
    },
    {
      "constant": true,
      "inputs": [],
      "name": "getEventsCount",
      "outputs": [
        {
          "internalType": "uint256",
          "name": "",
          "type": "uint256"
        }
      ],
      "payable": false,
      "stateMutability": "view",
      "type": "function"
    },
    {
      "constant": true,
      "inputs": [
        {
          "internalType": "uint256",
          "name": "_index",
          "type": "uint256"
        }
      ],
      "name": "getEvent",
      "outputs": [
        {
          "internalType": "string",
          "name": "",
          "type": "string"
        },
        {
          "internalType": "uint256",
          "name": "",
          "type": "uint256"
        },
        {
          "internalType": "string",
          "name": "",
          "type": "string"
        }
      ],
      "payable": false,
      "stateMutability": "view",
      "type": "function"
    }
  ],
  "bytecode": "0x608060405234801561001057600080fd5b50610e78806100206000396000f3fe608060405234801561001057600080fd5b50600436106100625760003560e01c80630b7914301461006757806330366d5f1461018157806369d34c061461019f5780636d1884e0146102fb578063ec3d3a9314610415578063f8749a581461057b575b600080fd5b6100936004803603602081101561007d57600080fd5b81019080803590602001909291905050506105a9565b604051808060200184815260200180602001838103835286818151815260200191508051906020019080838360005b838110156100dd5780820151818401526020810190506100c2565b50505050905090810190601f16801561010a5780820380516001836020036101000a031916815260200191505b50838103825284818151815260200191508051906020019080838360005b83811015610143578082015181840152602081019050610128565b50505050905090810190601f1680156101705780820380516001836020036101000a031916815260200191505b509550505050505060405180910390f35b610189610710565b6040518082815260200191505060405180910390f35b6102f9600480360360608110156101b557600080fd5b81019080803590602001906401000000008111156101d257600080fd5b8201836020820111156101e457600080fd5b8035906020019184600183028401116401000000008311171561020657600080fd5b91908080601f016020809104026020016040519081016040528093929190818152602001838380828437600081840152601f19601f820116905080830192505050505050509192919290803590602001909291908035906020019064010000000081111561027357600080fd5b82018360208201111561028557600080fd5b803590602001918460018302840111640100000000831117156102a757600080fd5b91908080601f016020809104026020016040519081016040528093929190818152602001838380828437600081840152601f19601f82011690508083019250505050505050919291929050505061071c565b005b6103276004803603602081101561031157600080fd5b81019080803590602001909291905050506107b0565b604051808060200184815260200180602001838103835286818151815260200191508051906020019080838360005b83811015610371578082015181840152602081019050610356565b50505050905090810190601f16801561039e5780820380516001836020036101000a031916815260200191505b50838103825284818151815260200191508051906020019080838360005b838110156103d75780820151818401526020810190506103bc565b50505050905090810190601f1680156104045780820380516001836020036101000a031916815260200191505b509550505050505060405180910390f35b6105796004803603608081101561042b57600080fd5b81019080803590602001909291908035906020019064010000000081111561045257600080fd5b82018360208201111561046457600080fd5b8035906020019184600183028401116401000000008311171561048657600080fd5b91908080601f016020809104026020016040519081016040528093929190818152602001838380828437600081840152601f19601f82011690508083019250505050505050919291929080359060200190929190803590602001906401000000008111156104f357600080fd5b82018360208201111561050557600080fd5b8035906020019184600183028401116401000000008311171561052757600080fd5b91908080601f016020809104026020016040519081016040528093929190818152602001838380828437600081840152601f19601f8201169050808301925050505050505091929192905050506109d1565b005b6105a76004803603602081101561059157600080fd5b8101908080359060200190929190505050610aab565b005b600081815481106105b657fe5b9060005260206000209060030201600091509050806000018054600181600116156101000203166002900480601f0160208091040260200160405190810160405280929190818152602001828054600181600116156101000203166002900480156106625780601f1061063757610100808354040283529160200191610662565b820191906000526020600020905b81548152906001019060200180831161064557829003601f168201915b505050505090806001015490806002018054600181600116156101000203166002900480601f0160208091040260200160405190810160405280929190818152602001828054600181600116156101000203166002900480156107065780601f106106db57610100808354040283529160200191610706565b820191906000526020600020905b8154815290600101906020018083116106e957829003601f168201915b5050505050905083565b60008080549050905090565b6000604051806060016040528085815260200184815260200183815250908060018154018082558091505090600182039060005260206000209060030201600090919290919091506000820151816000019080519060200190610780929190610c2e565b506020820151816001015560408201518160020190805190602001906107a7929190610c2e565b50505050505050565b6060600060606000805490508410610830576040517f08c379a00000000000000000000000000000000000000000000000000000000081526004018080602001828103825260138152602001807f496e76616c6964206576656e7420696e6465780000000000000000000000000081525060200191505060405180910390fd5b610838610cae565b6000858154811061084557fe5b9060005260206000209060030201604051806060016040529081600082018054600181600116156101000203166002900480601f0160208091040260200160405190810160405280929190818152602001828054600181600116156101000203166002900480156108f75780601f106108cc576101008083540402835291602001916108f7565b820191906000526020600020905b8154815290600101906020018083116108da57829003601f168201915b5050505050815260200160018201548152602001600282018054600181600116156101000203166002900480601f0160208091040260200160405190810160405280929190818152602001828054600181600116156101000203166002900480156109a35780601f10610978576101008083540402835291602001916109a3565b820191906000526020600020905b81548152906001019060200180831161098657829003601f168201915b5050505050815250509050806000015181602001518260400151829250809050935093509350509193909250565b6000805490508410610a4b576040517f08c379a00000000000000000000000000000000000000000000000000000000081526004018080602001828103825260138152602001807f496e76616c6964206576656e7420696e6465780000000000000000000000000081525060200191505060405180910390fd5b6000808581548110610a5957fe5b9060005260206000209060030201905083816000019080519060200190610a81929190610ccf565b5082816001018190555081816002019080519060200190610aa3929190610ccf565b505050505050565b6000805490508110610b25576040517f08c379a00000000000000000000000000000000000000000000000000000000081526004018080602001828103825260138152602001807f496e76616c6964206576656e7420696e6465780000000000000000000000000081525060200191505060405180910390fd5b60008190505b600160008054905003811015610bde5760006001820181548110610b4b57fe5b906000526020600020906003020160008281548110610b6657fe5b906000526020600020906003020160008201816000019080546001816001161561010002031660029004610b9b929190610d4f565b506001820154816001015560028201816002019080546001816001161561010002031660029004610bcd929190610d4f565b509050508080600101915050610b2b565b506000805480610bea57fe5b600190038181906000526020600020906003020160008082016000610c0f9190610dd6565b6001820160009055600282016000610c279190610dd6565b5050905550565b828054600181600116156101000203166002900490600052602060002090601f016020900481019282601f10610c6f57805160ff1916838001178555610c9d565b82800160010185558215610c9d579182015b82811115610c9c578251825591602001919060010190610c81565b5b509050610caa9190610e1e565b5090565b60405180606001604052806060815260200160008152602001606081525090565b828054600181600116156101000203166002900490600052602060002090601f016020900481019282601f10610d1057805160ff1916838001178555610d3e565b82800160010185558215610d3e579182015b82811115610d3d578251825591602001919060010190610d22565b5b509050610d4b9190610e1e565b5090565b828054600181600116156101000203166002900490600052602060002090601f016020900481019282601f10610d885780548555610dc5565b82800160010185558215610dc557600052602060002091601f016020900482015b82811115610dc4578254825591600101919060010190610da9565b5b509050610dd29190610e1e565b5090565b50805460018160011615610100020316600290046000825580601f10610dfc5750610e1b565b601f016020900490600052602060002090810190610e1a9190610e1e565b5b50565b610e4091905b80821115610e3c576000816000905550600101610e24565b5090565b9056fea265627a7a72315820ec739f98d42cf7ffa8e6353d3f53b4ee277ce2d9502c07f96d5f2f3259d8022264736f6c63430005100032",
  "source": "pragma solidity >=0.5.16;\n\ncontract MyContract {\n    struct Event {\n        string activity;\n        uint256 date;\n        string className;\n    }\n\n    Event[] public events;\n\n    function addEvent(string memory _activity, uint256 _date, string memory _className) public {\n        events.push(Event(_activity, _date, _className));\n    }\n\n    function editEvent(uint256 _index, string memory _activity, uint256 _date, string memory _className) public {\n        require(_index < events.length, \"Invalid event index\");\n        Event storage eventItem = events[_index];\n        eventItem.activity = _activity;\n        eventItem.date = _date;\n        eventItem.className = _className;\n    }\n\n    function deleteEvent(uint256 _index) public {\n        require(_index < events.length, \"Invalid event index\");\n        for (uint256 i = _index; i < events.length - 1; i++) {\n            events[i] = events[i + 1];\n        }\n        events.pop();\n    }\n\n    function getEventsCount() public view returns (uint256) {\n        return events.length;\n    }\n\n    function getEvent(uint256 _index) public view returns (string memory, uint256, string memory) {\n        require(_index < events.length, \"Invalid event index\");\n        Event memory eventItem = events[_index];\n        return (eventItem.activity, eventItem.date, eventItem.className);\n    }\n}\n",
  "sourcePath": "/Users/cho-hsincheng/CODE/calendar/truffle/contracts/MyContract.sol",
  "compiler": {
    "name": "solc",
    "version": "0.5.16+commit.9c3226ce.Emscripten.clang"
  },
  "schemaVersion": "3.4.16",
  "updatedAt": "2024-06-09T19:41:22.578Z",
  "networkType": "ethereum",
  "devdoc": {
    "methods": {}
  },
  "userdoc": {
    "methods": {}
  }
}